:020000040000FA
:060000000A128A110C280F
:10000800FE00030EF6000A08F7000A128A11E32D13
:100018000A128A110F280A128A11FE270A128A1157
:10002800E9008313A0308400B4300A128A154524ED
:100038000A128A11E001E101E201E301E401E501AC
:10004800E601F801F901FA0183010A128A150B2E5B
:100058008312031331088039B6003608BB00310813
:10006800B6003607B7003708C100B01F3C283D2846
:100078003E28411441080319422843285228410ABE
:10008800031D4728482850280030B1000030B00030
:100098000030AF000030AE00B0175A280030B10071
:1000A8000030B0000030AF000030AE0035088039B5
:1000B800B6003608BB063508B6003607B70037085D
:1000C800C000B41F682869286A284014400803192A
:1000D8006E286F287E28400A031D732874287C2800
:1000E8000030B5000030B4000030B3000030B2007A
:1000F800B41786280030B5000030B4000030B300D3
:100108000030B200400803198A288B28902841083B
:10011800031D8F28902899280030B1000030B000C6
:100128000030AF000030AE008C2B2E08B600360829
:10013800A00034080A128A15B4250A128A118312FB
:1001480003132108C7002008C6004608B600B701F7
:10015800B801B9013908BF003808BE003708BD002A
:100168003608BC004708B600B701B801B90139081C
:10017800C5003808C4003708C3003608C2002F0875
:10018800B6003608A00033080A128A15B4250A12E8
:100198008A11831203132108C7002008C6004608E5
:1001A800B600B701B801B9013608BC073708031112
:1001B8000318013E0319E128BD0738080311031885
:1001C800013E0319E828BE07390803110318013E48
:1001D8000319EF28BF074708B600B701B801B901EE
:1001E8003608C207370803110318013E0319FD2812
:1001F800C307380803110318013E03190429C4076B
:10020800390803110318013E03190B29C5073008E3
:10021800B6003608A00032080A128A15B4250A1258
:100228008A11831203132108C7002008C600460854
:10023800B600B701B801B9013608BC073708031181
:100248000318013E03192929BD07380803110318AB
:10025800013E03193029BE07390803110318013E6E
:1002680003193729BF074708B600B701B801B90114
:100278003608C207370803110318013E0319452938
:10028800C307380803110318013E03194C29C40792
:10029800390803110318013E03195329C50708300B
:1002A800B6000310BC0DBD0DBE0DBF0DB60B552914
:1002B8002F08B6003608A00032080A128A15B4259D
:1002C8000A128A11831203132108C7002008C600E6
:1002D8004608B6004708B700B801B9013608BC0798
:1002E800370803110318013E03197B29BD07380895
:1002F80003110318013E03198229BE0739080311A7
:100308000318013E03198929BF072E08B6003608CD
:10031800A00033080A128A15B4250A128A1183121A
:1003280003132108C7002008C6004608B60047087E
:10033800B700B801B9013608BC073708031103181C
:10034800013E0319A829BD07380803110318013E07
:100358000319AF29BE07390803110318013E031911
:10036800B629BF070830B6000310BC0DBD0DBE0D81
:10037800BF0DB60BB8292E08B6003608A000320803
:100388000A128A15B4250A128A1183120313210846
:10039800C7002008C6004608B6004708B700B801DD
:1003A800B9013608BC07370803110318013E0319C1
:1003B800DE29BD07380803110318013E0319E52992
:1003C800BE07390803110318013E0319EC29BF07BA
:1003D8002F08B6003608A00034080A128A15B4257A
:1003E8000A128A11831203132108C7002008C600C5
:1003F8004608B6004708B700B801B9013608C20771
:10040800370803110318013E03190B2AC3073808DC
:1004180003110318013E0319122AC40739080311EE
:100428000318013E0319192AC5073008B600360813
:10043800A00033080A128A15B4250A128A118312F9
:1004480003132108C7002008C6004608B60047085D
:10045800B700B801B9013608C207370803110318F5
:10046800013E0319382AC307380803110318013E4F
:1004780003193F2AC407390803110318013E031959
:10048800462AC5073008B6003608A00034080A1204
:100498008A15B4250A128A11831203132108C7008A
:1004A8002008C6004608B6004708B700B801B901D9
:1004B80008300310B60DB70DB80DB90DFF3E031D7A
:1004C8005D2A3608C207370803110318013E0319CD
:1004D8006E2AC307380803110318013E0319752A49
:1004E800C407390803110318013E03197C2AC507FC
:1004F8003C08B6003D08B7003E08B8003F08B90000
:1005080018300310B90CB80CB70CB60CFF3E031D1D
:10051800852A3608C207370803110318013E031954
:10052800962AC307380803110318013E03199D2AA8
:10053800C407390803110318013E0319A42AC50783
:100548000830B6000310BC0DBD0DBE0DBF0DB60BB7
:10055800A62A41084007B600B701B70D3608823E03
:10056800C60037080318013EFF3EC700D82A0130ED
:10057800B6000310C20DC30DC40DC50DB60BBD2AC0
:10058800BF1FC72AC82AC92A42140130B60003105F
:10059800BC0DBD0DBE0DBF0DB60BCB2AFF30C60777
:1005A8000318C70AFF30C707C41FDB2ADC2ABB2A87
:1005B800C001BF1FE02AE12AFD2AFF303C05B60032
:1005C800FF303D05B700FF303E05B8007F303F05DE
:1005D800B90039083804370436040319F42AF52A0F
:1005E800F82AC001C00AFD2A421CFB2AFC2AFD2A5F
:1005F800F52A40080319012B022B332B0130C207BF
:10060800003003180130C307003003180130C40755
:10061800003003180130C507451C132B142B332B4E
:100628004208B6004308B7004408B8004508B900B6
:100638000130BA00390DB90CB80CB70CB60CBA0BAE
:100648001E2B3908C5003808C4003708C30036080F
:10065800C2000130C6070318C70A0030C707470899
:10066800803AFF0080307F02031D3C2BFF3046029A
:10067800031C3F2B402B4B2B7F3083120313C500E9
:100688008030C4000030C3000030C200802B8312C9
:1006980003134708803AFF0080307F02031D562B62
:1006A800013046020318592B5A2B662B003083124F
:1006B8000313C5000030C4000030C3000030C2007E
:1006C800BB01802B831203134608B6003608C1000D
:1006D800FF30C205FF30C3057F30C4050030C505B3
:1006E800411C772B782B792BC4174108B6000310CF
:1006F800360CB7003708C5003B08B6003608C504F5
:100708004508B1004408B0004308AF004208AE00F5
:10071800080083120313A80028080319942B952BAB
:10072800A92BA31F982B992BA92B2009AA002109D3
:10073800AB002209AC002309AD00AA0A0319AB0AD1
:100748000319AC0A0319AD0AB12B2308AD0022081E
:10075800AC002108AB002008AA00230822042104C9
:100768002004031DB82BB92BC22B0030A300003086
:10077800A2000030A1000030A000482C9630A40050
:100788002408A900D42B0130A4002408A9070130AB
:100798000310AD0CAC0CAB0CAA0CFF3E031DCC2B0C
:1007A800FE302D05031DD92BDA2BC72BF62B013074
:1007B800A4002408A9070130AA0700300318013053
:1007C800AB07003003180130AC07003003180130C4
:1007D800AD0701300310AD0CAC0CAB0CAA0CFF3EFE
:1007E800031DEE2BFF302D05031DFB2BFC2BDB2BF4
:1007F800082C0130A9020130A4000310AA0DAB0D8A
:10080800AC0DAD0DA40B012CAC1B0B2C0C2C122C1D
:10081800023029020318112C122CFD2B2918152C33
:10082800162C1E2CFF30AA05FF30AB057F30AC0517
:10083800FF30AD050310A90C2908A400A501A601E5
:10084800A70118300310A40DA50DA60DA70DFF3E96
:10085800031D262C2408AA042508AB042608AC048A
:100868002708AD04280803193A2C3B2C402CA31F59
:100878003E2C3F2C402CAD172D08A3002C08A200BD
:100888002B08A1002A08A000080083120313B00156
:10089800A91F4F2C502C5D2CA609A709A809A90946
:1008A800A60A0319A70A0319A80A0319A90AB00175
:1008B800B00AAD1F602C612C702CAA09AB09AC09D9
:1008C800AD09AA0A0319AB0A0319AC0A0319AD0A40
:1008D8000130AE002E08B0060030B4000030B3007E
:1008E8000030B2000030B10029082804270426048B
:1008F80003197F2C802CCD2CAF01AF0A902C01302E
:10090800AE000310A60DA70DA80DA90DAE0B852CE2
:100918000130AE002E08AF07A91F932C942C832C0E
:100928000130AE000310B10DB20DB30DB40DAE0B16
:10093800962C29082D02031DAB2C28082C02031D18
:10094800AB2C27082B02031DAB2C26082A02031CFC
:10095800AE2CAF2CBE2C2608AA022708031C270F92
:10096800AB022808031C280FAC022908031C290F16
:10097800AD02311401300310A90CA80CA70CA60C69
:10098800FF3E031DBF2C0130AF02031DCC2CCD2C24
:10099800942C30080319D12CD22CDD2CB109B209C2
:1009A800B309B409B10A0319B20A0319B30A03193E
:1009B800B40A3408A9003308A8003208A70031088F
:1009C800A6000800831203136008013EA100610815
:1009D8000318013E003EA20022086502031DF62C02
:1009E800210864020318F92CFA2C1C2D6008FF3E1C
:1009F800A10061080318013EFF3EA200650822021B
:100A0800031D082D6408210203180B2D0C2D1C2D25
:100A18000A128A1506240A128A110A128A150A2449
:100A28000A128A110A128A150E240A128A11662DD0
:100A38006008013EA10061080318013E003EA200C3
:100A480065082202031D2A2D6408210203182D2D92
:100A58002E2D452D0A128A1506240A128A110A1209
:100A68008A1516240A128A11831203136608031DB5
:100A78003E2D3F2D662D0A128A15A8240A128A11C6
:100A8800662D6008FF3EA10061080318013EFF3E85
:100A9800A20022086502031D532D210864020318D1
:100AA800562D572D662D0A128A1512240A128A11FC
:100AB8000A128A150A240A128A110A128A151A2495
:100AC8000A128A1108000310831203134A0D4B0DF2
:100AD800CC004C08D2005208031D732D742D7D2DB7
:100AE8000030CB000030CA000030C9000030C80018
:100AF800E22D4808CC004908CD004A08CE004B0832
:100B0800CF001F300310CF0CCE0CCD0CCC0CFF3E09
:100B1800031D862D4C08D0005008D100CA17FF309D
:100B2800C805FF30C905FF30CA050030CB0596302F
:100B3800D202D21FA02DA12DBB2D5208803A973E7C
:100B48000318A72DA82DA92D742D01300310CB0C47
:100B5800CA0CC90CC80CFF3E031DAA2D0130CC00DD
:100B68004C08D207031DB92DBA2DA92DD22D20303E
:100B78005202031CC02DC12DCD2D742D0130CC0087
:100B88000310C80DC90DCA0DCB0DCC0BC42D0130F7
:100B9800D2025208031DD12DD22DC22D510803199E
:100BA800D62DD72DE22DC809C909CA09CB09C80A0B
:100BB8000319C90A0319CA0A0319CB0A08008B1CAE
:100BC800E62DE72D0C2E7A08031DEB2DEC2DFF2DBD
:100BD8000130F4007408FA0000300A128A15422520
:100BE8000A128A11F400F501740883120313E40051
:100BF8007508E5000B2E7A030319032E042E0A2E1E
:100C080002307A06031D092E0A2E0B2EFA018B10CC
:100C1800831203130C1C112E122E3A2E02307A0660
:100C28000319172E182E1D2E7A03031D1C2E1D2E98
:100C3800352E0130F4007408F90779080339031DCB
:100C4800262E272E2B2E0130F4007408E6061530C8
:100C58007902031C302E312E352E0130F400740831
:100C6800FA00DC308E000B308F000C100B1D3D2E6F
:100C78003E2E502E0130F4007408F807193078021F
:100C8800031C472E482E4D2EF8010130F40074083D
:100C9800E900833081000B1177088A00760E830003
:100CA800FE0E7E0E09000A128A1506240A128A11FF
:100CB8000A128A150A240A128A110A128A150E249F
:100CC8000A128A11831203136608031D6C2E6D2EF7
:100CD800772E6508A9006408A8000A128A11C1269F
:100CE8000A128A117C2E0A128A151E240A128A11E7
:100CF8000A128A1527250A128A11013A031D852E20
:100D0800862E982E00308312031365024B30031988
:100D180064020318902E912E982EF9010530E407ED
:100D28000318E50A0030E5070A128A15F1240A12A9
:100D38008A11013A031DA12EA22EB42E003083126F
:100D480003136502243003196402031CAC2EAD2E74
:100D5800B42EF9010530E4020030031CE503E50276
:100D6800831203136408AE002E08A10000300A1293
:100D78008A11DA270A128A1108000A30831203132B
:100D8800A0000030A1002908A3002808A2000A1228
:100D98008A156A260A128A11831203132008AA00E8
:100DA8002A08AC000A30A0000030A1002908A300DE
:100DB8002808A2000A128A15E3260A128A11831249
:100DC80003132008AA002A08AD0002300A128A1567
:100DD8000C250A128A11831203132D08AA00AB01ED
:100DE8002A08A0002B08A1000A128A1570270A12E7
:100DF8008A110D3083120313AB00FB30AA00AA0B33
:100E0800032FAB0B032F01300A128A150C250A1287
:100E18008A11831203132C08AA00AB012A08A00028
:100E28002B08A1000A128A1570270A128A110D30A0
:100E380083120313AB00FB30AA00AA0B212FAB0BC4
:100E4800212F0800133083120313D500D50B2A2F46
:100E5800831203131F151F19322F332F2F2F8316B9
:100E680003131E0883120313D500D6011E08D700EA
:100E7800D8015708D800D70155085704A0005608CC
:100E88005804A100A201A11BA2032208A30001305B
:100E98000A128A118D230A128A1183120313230856
:100EA800B5002208B4002108B3002008B2003E3083
:100EB800B100FA30B0005E30AF003530AE000A1233
:100EC8008A112C200A128A11831203133108CB00CD
:100ED8003008CA002F08C9002E08C8000A128A1153
:100EE80067250A128A11831203134908DA00480891
:100EF800D9005A08D4005908D300080083120313F4
:100F08006903031D882F892FAB2F0A128A11262700
:100F18000A128A11831203135408E3005308E200EB
:100F28006308A1006208A000A0300A128A153A26B8
:100F38000A128A11A0300A128A15A6260A128A11E4
:100F4800831203132908E1002808E000E901630877
:100F5800A9006208A8000A128A11C1260A128A1179
:100F68000A128A11E6240A128A110A128A152725FA
:100F78000A128A11013A0319C22FC32FCD2F0A1260
:100F88008A15F1240A128A11013A031DCC2FCD2F9C
:100F9800D92F0A128A151E240A128A11F901023061
:100FA80083120313DB005B08FA00080083120313A3
:100FB800A2000A128A1556240A128A11A0300A12AF
:100FC8008A158D240A128A118312031322080A1221
:100FD8008A158D240A128A118312031321080A1212
:100FE8008A158D240A128A110A128A155F240A1298
:060FF8008A11080001341B
:1017FC0083160313071108008316031387120800BE
:10180C0083120313071108008312031387120800B5
:10181C0083120313861308008312031307150800A1
:10182C00831203138716080083120313861708000C
:10183C008312031305128511080083160313061473
:10184C0086140615080083160313051285118801EA
:10185C00080064300A128A1529270A128A15080012
:10186C0083160313861383120313861308008B1736
:10187C000B1783160313011381130B160800640056
:10188C008001840A0406031900340406462C0A124B
:10189C008A1573240A128A1583160313111408006F
:1018AC000A128A1580240A128A158316031311143E
:1018BC0008000A128A1580240A128A15831603134B
:1018CC0011150800F0000A128A1573240A128A15E1
:1018DC007008831203139300080083160313110876
:1018EC001F39031D7A2C7B2C732C14197E2C7F2C06
:1018FC00732C08008316031311081F39031D872C42
:10190C00882C802C14198B2C8C2C802C0800831286
:10191C000313A0000A128A1580240A128A15831256
:10192C00031320089300080083160313011281127D
:10193C0081110114811001158B168330831203134E
:10194C008100080083120313060D060D0139A00057
:10195C000130A006A00CA00C060820067F3920063A
:10196C00860008000A128A151E240A128A150A1209
:10197C008A1506240A128A150A128A150A240A12D2
:10198C008A1563000800831203131016901690102A
:10199C00901110151014831603130C14DC308312E1
:1019AC0003138E000B308F000800831203131F14D7
:1019BC001F139F13831603131F13831203139F11FB
:1019CC001F169F12831603139F171F109F101F11B2
:1019DC009F1105150800831203138618F62CF72C9B
:1019EC000A2DC33083120313A100CC30A000A00B2E
:1019FC00FD2CA10BFD2C0000831203138618072D60
:101A0C00082D0A2D01300B2D003008008312031312
:101A1C00A200162D05168511262D05128515262DCD
:101A2C002208A000A1012108003A03191E2D262D21
:101A3C002008013A0319102D033A0319132D262DF2
:101A4C0008008312031306192C2D2D2D402DC330A5
:101A5C0083120313A100CC30A000A00B332DA10BDB
:101A6C00332D00008312031306193D2D3E2D402DFE
:101A7C000130412D00300800F3000A128A154D2464
:101A8C000A128A15A0300A128A1568240A128A15BD
:101A9C0073080A128A1568240A128A150A128A1502
:101AAC004D240A128A15A1300A128A1568240A12CA
:101ABC008A1501300A128A1566250A128A15080041
:101ACC00F1000A128A1573240A128A15831603135D
:101ADC0091150A128A1573240A128A15831203139C
:101AEC001308F0007008F2000A128A1573240A1207
:101AFC008A1571080319832D872D831603139116EC
:101B0C008A2D831603139112111672080800831282
:101B1C000313A401A501201C942D952D9B2D2208A7
:101B2C00A4070318A50A2308A50701300310A20D6A
:101B3C00A30DFF3E031D9C2D01300310A10CA00C26
:101B4C00FF3E031DA32D20082104031DAE2DAF2D38
:101B5C00912D2508A1002408A0000800831203136E
:101B6C00A800A401A5012008A200A3012208A60038
:101B7C002308A700281CC32DC42DCA2D2608A40792
:101B8C000318A50A2708A50701300310A60DA70DF9
:101B9C00FF3E031DCB2D0310A80C2808031DD72DC9
:101BAC00D82DC02D2508A1002408A00008000A1279
:101BBC008A1126270A128A15831203135408E80087
:101BCC005308E700DC015C08DB005B07A03E8400E7
:101BDC00670883138000840A680880000130DB00EA
:101BEC005B08DC070A305C02031CFD2DFE2DE92D81
:101BFC00A0300A128A15A6260A128A15831203131C
:101C0C002908E1002808E00008000A128A15B72705
:101C1C000A128A15222E0A128A15B8240A128A155B
:101C2C00222E0A128A1182270A128A15222E0A12D1
:101C3C008A1157260A128A157A0883120313DE00BA
:101C4C00DF015F08003A03192C2E222E5E08003AA1
:101C5C000319112E013A0319172E033A03191D2EDD
:101C6C00222E0A128A110C2883120313A8000930A1
:101C7C00A2002208A9002908A20022072807A30015
:101C8C002308FE3E840083130008A400840A000885
:101C9C00A5002908A60026072807A7002708840006
:101CAC0024088000840A250880000130A902290834
:101CBC00031D612E622E412E28088400200880000E
:101CCC00840A2108800008008312031320082104D1
:101CDC000319712E722EA12EA501A50A802E01309A
:101CEC000310A00DA10DFF3E031D762E0130A400A4
:101CFC002408A507A11F832E842E752E21082302EC
:101D0C00031D8A2E20082202031C8D2E8E2E942E4B
:101D1C002008A2022108031CA303A3020130031014
:101D2C00A10CA00CFF3E031D952E0130A502031D36
:101D3C00A02EA12E842E2308A1002208A0000800AA
:101D4C0083120313B000B101B201B3013308AA002E
:101D5C002A073007AB002B08840083130008AC0063
:101D6C00840A0008AD0031082C07B10032080318B2
:101D7C00320A2D07B2000130AA002A08B3070A3034
:101D8C003302031CCA2ECB2EAC2E0A30A00000301E
:101D9C00A1003208A3003108A2000A128A15E3261A
:101DAC000A128A15831203132108AF002008AE0013
:101DBC002F08A9002E08A800080083120313A50100
:101DCC00A601200821040319EC2EED2E242FA701C7
:101DDC00A70AFB2E01300310A00DA10DFF3E031D21
:101DEC00F12E0130A4002408A707A11FFE2EFF2E00
:101DFC00F02E01300310A50DA60DFF3E031D002F84
:101E0C0021082302031D0C2F20082202031C0F2F74
:101E1C00102F172F2008A2022108031CA303A302D2
:101E2C00251401300310A10CA00CFF3E031D182F2C
:101E3C000130A702031D232F242FFF2E2608A100FB
:101E4C002508A000080083120313B70083160313A0
:101E5C008715071628308312031394008316031377
:101E6C009101643083120313A2000030A3003708E1
:101E7C00B500B6010310B50DB60D0310B50DB60DBA
:101E8C003508A0003608A1000A128A158D250A1201
:101E9C008A15831203132008A6002108A70000301E
:101EAC00A71BFF30A800A9000030AD007A30AC00B1
:101EBC001230AB000030AA000A128A1149240A120F
:101ECC008A15831203132608FF3E8316031393000F
:101EDC00940108008F2F3F308800B62F0630880001
:101EEC00B62F5B308800B62F4F308800B62F663087
:101EFC008800B62F6D308800B62F7D308800B62F45
:101F0C0007308800B62F7F308800B62F6F308800DE
:101F1C00B62F831203132108003A0319962FB62FFC
:101F2C002008003A0319712F013A0319742F033A50
:101F3C000319772F013A03197A2F073A03197D2FCA
:101F4C00013A0319802F033A0319832F013A03191D
:101F5C00862F0F3A0319892F013A03198C2FB62FAC
:101F6C0008000A128A1529240A128A150A128A15DF
:101F7C0023240A128A150A128A153D240A128A157C
:101F8C000A128A15FE230A128A150A128A150224CD
:101F9C000A128A150A128A15DB240A128A150A12E9
:101FAC008A15C9240A128A150A128A159A240A1249
:101FBC008A150A128A1536240A128A150A128A15EB
:101FCC002F240A128A150A128A15DD250A128A157F
:101FDC00FA013C3083120313E4000030E5003C307E
:101FEC00DD005D08A10000300A128A11DA270A12FE
:041FFC008A1508003A
:02400E003A3F37
:00000001FF
